:100000000C942A000C9434000C9434000C943400AA
:100010000C9434000C9434000C9434000C94340090
:100020000C9434000C9434000C9434000C94340080
:100030000C9434000C9434000C9434000C94340070
:100040000C9434000C9434000C9434000C94340060
:100050000C94340011241FBECFE5D8E0DEBFCDBF25
:100060000E946B000C9471000C9400001BBA27E0F6
:1000700015C03BB381E090E0022E02C0880F991FAB
:100080000A94E2F7832B8BBB3FE38DE093E0315082
:1000900080409040E1F700C000002150243048F734
:1000A0001BBA20E015C03BB381E090E0022E02C0F5
:1000B000880F991F0A94E2F7832B8BBB3FE38DE0F7
:1000C00093E0315080409040E1F700C000002F5F86
:1000D000243048F308958FEF8ABB1BBA0E94360084
:0600E000FDCFF894FFCFF4
:00000001FF
